{"abi":[{"type":"constructor","inputs":[{"name":"name_","type":"string","internalType":"string"},{"name":"symbol_","type":"string","internalType":"string"},{"name":"decimals_","type":"uint8","internalType":"uint8"},{"name":"cap_","type":"uint256","internalType":"uint256"},{"name":"initialOwner_","type":"address","internalType":"address"},{"name":"initialMintTo_","type":"address","internalType":"address"},{"name":"initialMintAmount_","type":"uint256","internalType":"uint256"}],"stateMutability":"nonpayable"},{"type":"function","name":"CAP","inputs":[],"outputs":[{"name":"","type":"uint256","internalType":"uint256"}],"stateMutability":"view"},{"type":"function","name":"DECIMALS","inputs":[],"outputs":[{"name":"","type":"uint8","internalType":"uint8"}],"stateMutability":"view"},{"type":"function","name":"allowance","inputs":[{"name":"owner","type":"address","internalType":"address"},{"name":"spender","type":"address","internalType":"address"}],"outputs":[{"name":"","type":"uint256","internalType":"uint256"}],"stateMutability":"view"},{"type":"function","name":"approve","inputs":[{"name":"spender","type":"address","internalType":"address"},{"name":"value","type":"uint256","internalType":"uint256"}],"outputs":[{"name":"","type":"bool","internalType":"bool"}],"stateMutability":"nonpayable"},{"type":"function","name":"balanceOf","inputs":[{"name":"account","type":"address","internalType":"address"}],"outputs":[{"name":"","type":"uint256","internalType":"uint256"}],"stateMutability":"view"},{"type":"function","name":"burn","inputs":[{"name":"value","type":"uint256","internalType":"uint256"}],"outputs":[],"stateMutability":"nonpayable"},{"type":"function","name":"burnFrom","inputs":[{"name":"account","type":"address","internalType":"address"},{"name":"value","type":"uint256","internalType":"uint256"}],"outputs":[],"stateMutability":"nonpayable"},{"type":"function","name":"decimals","inputs":[],"outputs":[{"name":"","type":"uint8","internalType":"uint8"}],"stateMutability":"view"},{"type":"function","name":"mint","inputs":[{"name":"to","type":"address","internalType":"address"},{"name":"amount","type":"uint256","internalType":"uint256"}],"outputs":[],"stateMutability":"nonpayable"},{"type":"function","name":"name","inputs":[],"outputs":[{"name":"","type":"string","internalType":"string"}],"stateMutability":"view"},{"type":"function","name":"owner","inputs":[],"outputs":[{"name":"","type":"address","internalType":"address"}],"stateMutability":"view"},{"type":"function","name":"renounceOwnership","inputs":[],"outputs":[],"stateMutability":"nonpayable"},{"type":"function","name":"symbol","inputs":[],"outputs":[{"name":"","type":"string","internalType":"string"}],"stateMutability":"view"},{"type":"function","name":"totalSupply","inputs":[],"outputs":[{"name":"","type":"uint256","internalType":"uint256"}],"stateMutability":"view"},{"type":"function","name":"transfer","inputs":[{"name":"to","type":"address","internalType":"address"},{"name":"value","type":"uint256","internalType":"uint256"}],"outputs":[{"name":"","type":"bool","internalType":"bool"}],"stateMutability":"nonpayable"},{"type":"function","name":"transferFrom","inputs":[{"name":"from","type":"address","internalType":"address"},{"name":"to","type":"address","internalType":"address"},{"name":"value","type":"uint256","internalType":"uint256"}],"outputs":[{"name":"","type":"bool","internalType":"bool"}],"stateMutability":"nonpayable"},{"type":"function","name":"transferOwnership","inputs":[{"name":"newOwner","type":"address","internalType":"address"}],"outputs":[],"stateMutability":"nonpayable"},{"type":"event","name":"Approval","inputs":[{"name":"owner","type":"address","indexed":true,"internalType":"address"},{"name":"spender","type":"address","indexed":true,"internalType":"address"},{"name":"value","type":"uint256","indexed":false,"internalType":"uint256"}],"anonymous":false},{"type":"event","name":"OwnershipTransferred","inputs":[{"name":"previousOwner","type":"address","indexed":true,"internalType":"address"},{"name":"newOwner","type":"address","indexed":true,"internalType":"address"}],"anonymous":false},{"type":"event","name":"Transfer","inputs":[{"name":"from","type":"address","indexed":true,"internalType":"address"},{"name":"to","type":"address","indexed":true,"internalType":"address"},{"name":"value","type":"uint256","indexed":false,"internalType":"uint256"}],"anonymous":false},{"type":"error","name":"ERC20InsufficientAllowance","inputs":[{"name":"spender","type":"address","internalType":"address"},{"name":"allowance","type":"uint256","internalType":"uint256"},{"name":"needed","type":"uint256","internalType":"uint256"}]},{"type":"error","name":"ERC20InsufficientBalance","inputs":[{"name":"sender","type":"address","internalType":"address"},{"name":"balance","type":"uint256","internalType":"uint256"},{"name":"needed","type":"uint256","internalType":"uint256"}]},{"type":"error","name":"ERC20InvalidApprover","inputs":[{"name":"approver","type":"address","internalType":"address"}]},{"type":"error","name":"ERC20InvalidReceiver","inputs":[{"name":"receiver","type":"address","internalType":"address"}]},{"type":"error","name":"ERC20InvalidSender","inputs":[{"name":"sender","type":"address","internalType":"address"}]},{"type":"error","name":"ERC20InvalidSpender","inputs":[{"name":"spender","type":"address","internalType":"address"}]},{"type":"error","name":"OwnableInvalidOwner","inputs":[{"name":"owner","type":"address","internalType":"address"}]},{"type":"error","name":"OwnableUnauthorizedAccount","inputs":[{"name":"account","type":"address","internalType":"address"}]}],"bytecode":{"object":"0x60c060405234610604576110de8038038061001981610609565b92833981019060e0818303126106045780516001600160401b038111610604578261004591830161062e565b602082015190926001600160401b0382116106045761006591830161062e565b604082015160ff81168082036106045760608401519261008760808601610699565b9560c061009660a08801610699565b96015181519097906001600160401b03811161050e57600354600181811c911680156105fa575b60208210146104ee57601f8111610595575b50806020601f821160011461052f57600091610524575b508160011b916000199060031b1c1916176003555b82516001600160401b03811161050e57600454600181811c91168015610504575b60208210146104ee57601f8111610489575b50806020601f821160011461042357600091610418575b508160011b916000199060031b1c1916176004555b6001600160a01b031690811561040257600580546001600160a01b03198116841790915560405192906001600160a01b03167f8be0079c531659141344cd1fd0a4f28419497f9722a3daafe3b4186f6b6457e0600080a351156103d9575051156103ab57801515908161039f575b501561036f578115610344578184116102ff5760805260a0528161020f575b604051610a3090816106ae8239608051816107d6015260a05181818161018101526104e00152f35b6001600160a01b03169081156102cb5760006002548281018091116102b7576000927fddf252ad1be2c89b69c2b068fc378daa952ba7f163c4a11628f55a4df523b3ef926020926002555084845283825260408420818154019055604051908152a360025460a051106102835738806101e7565b60405162461bcd60e51b815260206004820152600c60248201526b10d05417d15610d15151115160a21b6044820152606490fd5b634e487b7160e01b82526011600452602482fd5b60405162461bcd60e51b815260206004820152600c60248201526b4d494e545f544f5f5a45524f60a01b6044820152606490fd5b60405162461bcd60e51b815260206004820152601360248201527f494e495449414c5f455843454544535f434150000000000000000000000000006044820152606490fd5b60405162461bcd60e51b815260206004820152600360248201526204341560ec1b6044820152606490fd5b60405162461bcd60e51b8152602060048201526008602482015267444543494d414c5360c01b6044820152606490fd5b601e91501115386101c8565b60405162461bcd60e51b815260206004820152600660248201526514d6535093d360d21b6044820152606490fd5b60649062461bcd60e51b81526020600482015260046024820152634e414d4560e01b6044820152fd5b631e4fbdf760e01b600052600060045260246000fd5b905084015138610145565b600460009081528181209250601f198416905b81811061047157509083600194939210610458575b5050811b0160045561015a565b86015160001960f88460031b161c19169055388061044b565b9192602060018192868b015181550194019201610436565b60046000527f8a35acfbc15ff81a39ae7d344fd709f28e8600b4aa8c65c6b64bfe7fe36bd19b601f830160051c810191602084106104e4575b601f0160051c01905b8181106104d8575061012e565b600081556001016104cb565b90915081906104c2565b634e487b7160e01b600052602260045260246000fd5b90607f169061011c565b634e487b7160e01b600052604160045260246000fd5b9050830151386100e6565b600360009081528181209250601f198416905b81811061057d57509083600194939210610564575b5050811b016003556100fb565b85015160001960f88460031b161c191690553880610557565b9192602060018192868a015181550194019201610542565b60036000527fc2575a0e9e593c00f959f8c92f12db2869c3395a3b0502d05e2516446f71f85b601f830160051c810191602084106105f0575b601f0160051c01905b8181106105e457506100cf565b600081556001016105d7565b90915081906105ce565b90607f16906100bd565b600080fd5b6040519190601f01601f191682016001600160401b0381118382101761050e57604052565b81601f82011215610604578051906001600160401b03821161050e5761065d601f8301601f1916602001610609565b92828452602083830101116106045760005b82811061068457505060206000918301015290565b8060208092840101518282870101520161066f565b51906001600160a01b03821682036106045756fe608080604052600436101561001357600080fd5b60003560e01c90816306fdde031461067457508063095ea7b3146105c257806318160ddd146105a457806323b872dd1461056c5780632e0f262514610567578063313ce5671461056757806340c10f191461045657806342966c681461043957806370a08231146103ff578063715018a6146103a257806379cc6790146103705780638da5cb5b1461034757806395d89b4114610226578063a9059cbb146101f5578063dd62ed3e146101a4578063ec81b483146101695763f2fde38b146100da57600080fd5b34610164576020366003190112610164576100f3610790565b6100fb610950565b6001600160a01b0316801561014e57600580546001600160a01b0319811683179091556001600160a01b03167f8be0079c531659141344cd1fd0a4f28419497f9722a3daafe3b4186f6b6457e0600080a3005b631e4fbdf760e01b600052600060045260246000fd5b600080fd5b346101645760003660031901126101645760206040517f00000000000000000000000000000000000000000000000000000000000000008152f35b34610164576040366003190112610164576101bd610790565b6101c56107a6565b6001600160a01b039182166000908152600160209081526040808320949093168252928352819020549051908152f35b346101645760403660031901126101645761021b610211610790565b60243590336108a1565b602060405160018152f35b346101645760003660031901126101645760405160006004548060011c9060018116801561033d575b6020831081146103295782855290811561030d57506001146102b6575b50819003601f01601f191681019067ffffffffffffffff8211818310176102a05761029c82918260405282610747565b0390f35b634e487b7160e01b600052604160045260246000fd5b905060046000527f8a35acfbc15ff81a39ae7d344fd709f28e8600b4aa8c65c6b64bfe7fe36bd19b6000905b8282106102f75750602091508201018261026c565b60018160209254838588010152019101906102e2565b90506020925060ff191682840152151560051b8201018261026c565b634e487b7160e01b84526022600452602484fd5b91607f169161024f565b34610164576000366003190112610164576005546040516001600160a01b039091168152602090f35b34610164576040366003190112610164576103a061038c610790565b6024359061039b8233836107fa565b610979565b005b34610164576000366003190112610164576103bb610950565b600580546001600160a01b031981169091556000906001600160a01b03167f8be0079c531659141344cd1fd0a4f28419497f9722a3daafe3b4186f6b6457e08280a3005b34610164576020366003190112610164576001600160a01b03610420610790565b1660005260006020526020604060002054604051908152f35b34610164576020366003190112610164576103a060043533610979565b346101645760403660031901126101645761046f610790565b6024359061047b610950565b6001600160a01b03168015610551576002549180830180931161053b576020926002557fddf252ad1be2c89b69c2b068fc378daa952ba7f163c4a11628f55a4df523b3ef600093849284845283825260408420818154019055604051908152a36002547f0000000000000000000000000000000000000000000000000000000000000000106105075780f35b60405162461bcd60e51b815260206004820152600c60248201526b10d05417d15610d15151115160a21b6044820152606490fd5b634e487b7160e01b600052601160045260246000fd5b63ec442f0560e01b600052600060045260246000fd5b6107bc565b346101645760603660031901126101645761021b610588610790565b6105906107a6565b6044359161059f8333836107fa565b6108a1565b34610164576000366003190112610164576020600254604051908152f35b34610164576040366003190112610164576105db610790565b60243590331561065e576001600160a01b031690811561064857336000526001602052604060002082600052602052806040600020556040519081527f8c5be1e5ebec7d5bd14f71427d1e84f3dd0314c0f7b2291e5b200ac8c7c3b92560203392a3602060405160018152f35b634a1406b160e11b600052600060045260246000fd5b63e602df0560e01b600052600060045260246000fd5b346101645760003660031901126101645760006003548060011c9060018116801561073d575b6020831081146103295782855290811561030d57506001146106e65750819003601f01601f191681019067ffffffffffffffff8211818310176102a05761029c82918260405282610747565b905060036000527fc2575a0e9e593c00f959f8c92f12db2869c3395a3b0502d05e2516446f71f85b6000905b8282106107275750602091508201018261026c565b6001816020925483858801015201910190610712565b91607f169161069a565b91909160208152825180602083015260005b81811061077a575060409293506000838284010152601f8019910116010190565b8060208092870101516040828601015201610759565b600435906001600160a01b038216820361016457565b602435906001600160a01b038216820361016457565b3461016457600036600319011261016457602060405160ff7f0000000000000000000000000000000000000000000000000000000000000000168152f35b6001600160a01b0390811660008181526001602081815260408084209587168452949052929020549392918401610832575b50505050565b82841061087c57801561065e576001600160a01b0382161561064857600052600160205260406000209060018060a01b03166000526020526040600020910390553880808061082c565b508290637dc7a0d960e11b60005260018060a01b031660045260245260445260646000fd5b6001600160a01b031690811561093a576001600160a01b03169182156105515760008281528060205260408120548281106109205791604082827fddf252ad1be2c89b69c2b068fc378daa952ba7f163c4a11628f55a4df523b3ef958760209652828652038282205586815280845220818154019055604051908152a3565b916064928463391434e360e21b8452600452602452604452fd5b634b637e8f60e11b600052600060045260246000fd5b6005546001600160a01b0316330361096457565b63118cdaa760e01b6000523360045260246000fd5b6001600160a01b0316801561093a576000918183528260205260408320548181106109e157817fddf252ad1be2c89b69c2b068fc378daa952ba7f163c4a11628f55a4df523b3ef926020928587528684520360408620558060025403600255604051908152a3565b6064939263391434e360e21b8452600452602452604452fdfea264697066735822122020784bcab45cd3346cfed689b005f3c58108954e391324718b298cb71437036064736f6c634300081e0033","linkReferences":{}},"methodIdentifiers":{"CAP()":"ec81b483","DECIMALS()":"2e0f2625","allowance(address,address)":"dd62ed3e","approve(address,uint256)":"095ea7b3","balanceOf(address)":"70a08231","burn(uint256)":"42966c68","burnFrom(address,uint256)":"79cc6790","decimals()":"313ce567","mint(address,uint256)":"40c10f19","name()":"06fdde03","owner()":"8da5cb5b","renounceOwnership()":"715018a6","symbol()":"95d89b41","totalSupply()":"18160ddd","transfer(address,uint256)":"a9059cbb","transferFrom(address,address,uint256)":"23b872dd","transferOwnership(address)":"f2fde38b"},"id":51}